:100000000C9437010C9468010C9468010C946801FD
:100010000C9468010C9468010C9468010C946801BC
:100020000C9468010C9468010C9468010C946801AC
:100030000C9468010C9468010C9468010C9468019C
:100040000C9468010C9468010C9468010C9468018C
:100050000C9468010C9468010C9468010C94CE0512
:100060000C9468010C9442060C9418060C946801D8
:100070000C9468010C9468010C9468010C9468015C
:100080000C9468010C9468010C9468010C9468014C
:100090000C9468010C9468010C9468010C94780627
:1000A0000C9468010C9468010C9468010C9468012C
:1000B0000C9468010C9468010C9468010C9468011C
:1000C0000C9468010C9468010C9468010C9468010C
:1000D0000C9468010C9468010C9468010C946801FC
:1000E0000C946801F501F801E701EB01EF012F0223
:1000F000FC01000206020A020E02140218021C028F
:100100002F02220226022A020C94E7030C94180202
:100110000C94AA020C948E020C94C3030C94F50167
:100120000C9426020C9496020C9436030C94140240
:100130000C94EB010C94C4030C9417040C94EF0181
:100140000C942A020C9463020C9406020C940A028A
:100150000C940E020C94FC010C94D3030C942F020B
:100160000C9400020C94AA070C94EF020C94E70183
:100170000C94B8020C941C020C94F8010C9422020A
:1001800000002200250028002B002E003100340042
:1001900002010000050108010B0105050505070521
:1001A00008080808020202020A0A080804040404F3
:1001B000010101010101010103030303030303031F
:1001C000040707070C0C0C0C0C0C0C0C02020202AE
:1001D00006060606060606060B0B0B0B0B0B0B0B97
:1001E0000102102020080810204010204080020149
:1001F000020108040201010204081020408080402E
:10020000201008040201800402018040201008042C
:1002100002010804020101020408102040800102CA
:1002200004081020408000000A0B02090C0D0E0883
:1002300007030401000000000000000000000000AF
:1002400000000000000000000000000000000000AE
:10025000000012111000000000000000000000006B
:10026000000000000000000000000000AA071124A8
:100270001FBECFEFD1E2DEBFCDBF00E00CBF12E06A
:10028000A0E0B2E0E4E6FAE100E00BBF02C00790B4
:100290000D92A235B107D9F723E0A2E5B2E001C083
:1002A0001D92A83EB207E1F711E0C7E3D1E000E0FC
:1002B00006C021970109802FFE010E94230DC6333D
:1002C000D10780E00807A9F70E94E3070C94300DDE
:1002D0000C94000020913E0390913D03213208F0E0
:1002E0004AC080911A038111FCCF32E030931A0387
:1002F00031E0309319033FEF309318031092170346
:1003000020931603ADE1B3E046EF52E0FA013E2F31
:10031000341B321718F43D913193F9CF1092F50246
:100320002091F502990F922B9093F5029091F4028F
:10033000913061F41092F4029091F5029093BB0019
:100340009091BC0093FDF8CF95EC01C095EE909391
:10035000BC0090911A039230E1F3909118039F3FF3
:1003600079F080911803803241F080911803803336
:1003700031F084E005C081E003C082E001C083E089
:1003800010921C0310923E0310921B03089590E0FC
:10039000FC01EA5DFD4F4491FC01E052FE4F2491C7
:1003A000FC01E656FE4F9491992309F466C044235C
:1003B00009F455C050E0FA013197E231F10508F037
:1003C0004EC08827EE58FF4F8F4F0C94230D80911D
:1003D00080008F7707C0809180008F7D03C080915F
:1003E0008000877F809380003AC084B58F7702C0F9
:1003F00084B58F7D84BD33C08091B0008F7703C0FA
:100400008091B0008F7D8093B00029C080919000D2
:100410008F7707C0809190008F7D03C080919000FE
:10042000877F809390001BC08091A0008F7707C0CA
:100430008091A0008F7D03C08091A000877F809372
:10044000A0000DC0809120018F7707C0809120010E
:100450008F7D03C080912001877F80932001E92F49
:10046000F0E0EE0FFF1FE058FE4FA591B4918FB75B
:10047000F894EC912E2B2C938FBF08953FB7F894EE
:100480008091CE029091CF02A091D002B091D10282
:1004900026B5A89B05C02F3F19F00196A11DB11DDF
:1004A0003FBFBA2FA92F982F8827820F911DA11D1A
:1004B000B11DBC01CD0142E0660F771F881F991F57
:1004C0004A95D1F70895CF92DF92EF92FF920F9362
:1004D0001F93CF93DF936C017A018B01C0E0D0E0D2
:1004E000CE15DF0589F0D8016D918D01D601ED9112
:1004F000FC910190F081E02DC6011995892B11F432
:100500007E0102C02196ECCFC701DF91CF911F91F0
:100510000F91FF90EF90DF90CF9008958091D202DD
:1005200090E02091D302821B91090895FC01918DE6
:10053000828D981761F0828DDF01A80FB11D5D9645
:100540008C91928D9F5F9F73928F90E008958FEFB3
:100550009FEF0895FC01918D828D981731F0828D67
:10056000E80FF11D858D90E008958FEF9FEF0895BE
:10057000FC01918D228D892F90E0805C9F4F821B22
:1005800091098F73992708958FE393E00E94B80231
:1005900021E0892B09F420E0822F0895FC01848D4D
:1005A000DF01A80FB11DA35ABF4F2C91848D90E09D
:1005B00001968F739927848FA689B7892C93A08978
:1005C000B1898C9180648C93938D848D981306C02F
:1005D0000288F389E02D80818F7D80830895EF92DA
:1005E000FF920F931F93CF93DF93EC0181E0888FED
:1005F0009B8D8C8D981305C0E889F989808185FDD4
:1006000024C0F62E0B8D10E00F5F1F4F0F731127C4
:10061000E02E8C8DE8120CC00FB607FCFACFE889EB
:10062000F989808185FFF5CFCE010E94CE02F1CFFE
:100630008B8DFE01E80FF11DE35AFF4FF0820B8F07
:10064000EA89FB898081806207C0EE89FF89608327
:10065000E889F98980818064808381E090E0DF917E
:10066000CF911F910F91FF90EF900895CF93DF935B
:10067000EC01888D8823C9F0EA89FB89808185FD9A
:1006800005C0A889B9898C9186FD0FC00FB607FCFB
:10069000F5CF808185FFF2CFA889B9898C9185FF3C
:1006A000EDCFCE010E94CE02E7CFDF91CF9108952A
:1006B00080E090E0892B21F00E94C402811125C0C6
:1006C00080E090E0892B41F080E090E0892B21F0E0
:1006D0000E94000081111CC080E090E0892B41F055
:1006E00080E090E0892B21F00E940000811113C06E
:1006F00080E090E0892BA1F080E090E0892B81F0F0
:100700000E94000081110AC008950E940000D8CF05
:100710000E940000E1CF0E940000EACF0C9400008C
:10072000089585ED8093BC008091BC0084FDFCCFD2
:1007300010921A03089540917402262F30E0240F7E
:10074000311D21323105DCF420911A032430C9F423
:10075000FC0180E090E0861758F4309174022191FA
:10076000DC01AE5ABD4FA30FB11D2C930196F3CF00
:1007700080917402680F6093740280E0089581E0B4
:10078000089582E008950895E091D3028091D20205
:10079000E81730F4F0E0EC52FD4F808190E00895CE
:1007A0008FEF9FEF08959091D3028091D202981716
:1007B00050F4E92FF0E0EC52FD4F208130E09F5FD4
:1007C0009093D30202C02FEF3FEFC9010895CF925B
:1007D000DF92EF92FF920F931F93CF93DF937C01F1
:1007E000262F972F8A0180911B03882391F0C62F13
:1007F000D72F6E01C40ED51ECC15DD0571F06991A1
:10080000D701ED91FC910190F081E02DC701199580
:10081000F3CF642F822F0E949B03C801DF91CF91F9
:100820001F910F91FF90EF90DF90CF900895CF939D
:10083000DF931F92CDB7DEB7698320911B0322237C
:10084000D1F020913E03203240F021E030E0FC0165
:100850003383228380E090E015C080911C03E82F51
:10086000F0E0E35EFC4F998190838F5F80931C03DF
:1008700080933E0305C061E0CE0101960E949B0378
:1008800081E090E00F90DF91CF910895682F8CED7B
:1008900093E00C941704009769F0FC01019000208C
:1008A000E9F73197AF01481B590BBC018FE393E087
:1008B0000C94630280E090E008958F929F92AF9233
:1008C000BF920F931F93CF93DF93CDB7DEB7A1975E
:1008D0000FB6F894DEBF0FBECDBF19A2423008F4A8
:1008E0004AE08E010F5D1F4F842E912CA12CB12C5C
:1008F000A50194010E94010DE62FB901CA01015022
:100900001109EA3014F4E05D01C0E95CD801EC9310
:10091000232B242B252B61F7C8010E944B04A196A1
:100920000FB6F894DEBF0FBECDBFDF91CF911F9100
:100930000F91BF90AF909F908F9008950C944B04AF
:100940004F925F926F927F928F929F92AF92BF92DF
:10095000CF92DF92EF92FF926B017C01B42E9B014C
:10096000AC010E94FC0C882319F080E292E027C0C1
:1009700026013701E89477F82FEF3FEF4FE75FE765
:10098000C301B2010E94FC0C81110DC02FEF3FEF9B
:100990004FE75FE7C301B2010E94320B18161CF447
:1009A00084E292E00CC02FEF3FEF4FE75FE4C70116
:1009B000B6010E948A0C181684F488E292E0FF9037
:1009C000EF90DF90CF90BF90AF909F908F907F90EF
:1009D0006F905F904F900C944B042FEF3FEF4FE7D9
:1009E0005FECC701B6010E94320B87FDE6CF20E025
:1009F00030E0A901C701B6010E94320B87FF11C088
:100A0000E0913F03F09140030190F081E02D6DE211
:100A10008FE393E019954C01F7FAF094F7F8F0940E
:100A200002C0812C912CA12C60E070E080E09FE35B
:100A3000AB1441F020E030E040E251E40E94370B7B
:100A4000A394F6CF9B01AC01C701B6010E94C60A70
:100A50002B013C010E94A90B6B017C010E94D80B69
:100A60009B01AC01C301B2010E94C50A2B013C01EC
:100A70004AE0C701B6010E945D047C01E80CF91C44
:100A8000BB2069F0E0913F03F09140030190F081B9
:100A9000E02D6EE28FE393E01995E80EF91EDB2C52
:100AA000DD2021F120E030E040E251E4C301B20159
:100AB0000E948F0C2B013C010E94A90B4B01A12C21
:100AC000B12C4AE0C501B4010E945D04E80EF91E94
:100AD000C501B4010E94D80B9B01AC01C301B20156
:100AE0000E94C50A2B013C01DA94DACFC701FF90BE
:100AF000EF90DF90CF90BF90AF909F908F907F90BE
:100B00006F905F904F90089580911A038111FCCFF0
:100B100081E080931A03809319039FEF9093180349
:100B20001092170395E0909316038093F50280913D
:100B3000F502806D8093F5028091F402813061F4BA
:100B40001092F4028091F5028093BB008091BC006A
:100B500083FDF8CF85EC01C085EE8093BC008091C9
:100B60001A038130E1F380911703863018F48091E5
:100B7000170301C086E0A6EFB2E024ED32E0F901F0
:100B80009E2F921B981718F49D919193F9CF109274
:100B9000D3028093D20208950E942B0D1F920F92D0
:100BA0000FB60F9211242F933F938F939F93AF9380
:100BB000BF938091CA029091CB02A091CC02B091D8
:100BC000CD023091C90223E0230F2D3720F4019686
:100BD000A11DB11D05C026E8230F0296A11DB11D60
:100BE0002093C9028093CA029093CB02A093CC02B7
:100BF000B093CD028091CE029091CF02A091D0020D
:100C0000B091D1020196A11DB11D8093CE029093A7
:100C1000CF02A093D002B093D102BF91AF919F9128
:100C20008F913F912F910F900FBE0F901F901895AD
:100C30001F920F920FB60F9211240BB60F922F93A3
:100C40003F934F935F936F937F938F939F93AF9354
:100C5000BF93EF93FF938FE393E00E94CE02FF9147
:100C6000EF91BF91AF919F918F917F916F915F9124
:100C70004F913F912F910F900BBE0F900FBE0F9091
:100C80001F9018951F920F920FB60F9211240BB65A
:100C90000F922F938F939F93EF93FF93E0914F03C6
:100CA000F09150038081E0915503F091560382FD4D
:100CB00012C09081809158038F5F8F7320915903E8
:100CC000821751F0E0915803F0E0E15CFC4F958F02
:100CD0008093580301C08081FF91EF919F918F9184
:100CE0002F910F900BBE0F900FBE0F901F90189575
:100CF0001F920F920FB60F9211240BB60F922F93E3
:100D00003F934F935F936F937F938F939F93AF9393
:100D1000BF93EF93FF938091B900887F803609F4E9
:100D20009CC068F5883209F45BC090F4803109F406
:100D300054C038F4882309F4F6C0883009F44DC053
:100D4000F6C0883109F44CC0803209F45DC0EFC0B0
:100D5000803409F468C048F4803309F455C08833FE
:100D600009F0E5C080931803D8C0803509F44FC05E
:100D7000883509F45DC0883409F0D9C0D6C08839F7
:100D800009F4C7C0A8F4883709F467C038F4883676
:100D900009F463C0803709F460C0C9C0883809F419
:100DA000B8C0803909F45FC0803809F0C0C05BC0AA
:100DB000803B09F486C038F4803A09F466C0883A6A
:100DC00009F47FC0B4C0803C09F4A7C0883C09F492
:100DD000A4C0883B09F48AC0AAC08091F50210C063
:100DE0009091170380911603981770F5E0911703FF
:100DF00081E08E0F80931703F0E0EA50FD4F808171
:100E00008093BB0085EC86C0809318038EC0E09170
:100E1000170381E08E0F809317038091BB00F0E0F1
:100E2000EA50FD4F808390911703809116036EC0A6
:100E3000E091170381E08E0F809317038091BB0030
:100E4000F0E0EA50FD4F80838091190381116DC05D
:100E500081E08093F40284EA61C083E080931A0306
:100E600010929802CFCF80919802803208F051C042
:100E7000E091980281E08E0F809398028091BB00F0
:100E8000F0E0E858FD4F8083BDCF85EC8093BC0037
:100E900010921A0380919802803230F4E091980207
:100EA000F0E0E858FD4F10826091980270E0E09108
:100EB0007602F091770288E792E0199510929802F5
:100EC00036C084E080931A03109275021092740267
:100ED000E0917202F0917302199580917402811170
:100EE00005C081E08093740210925202E091750275
:100EF00081E08E0F80937502F0E0EE5AFD4F808105
:100F00008093BB009091750280917402981708F449
:100F100079CF85E88093BC000AC085EC8093BC0043
:100F200010921A0304C0109218030E949103FF91BB
:100F3000EF91BF91AF919F918F917F916F915F9151
:100F40004F913F912F910F900BBE0F900FBE0F90BE
:100F50001F901895EFE3F3E01382128288EE93E07E
:100F6000A0E0B0E084839583A683B78324E032E0D9
:100F70003183208325EC30E03587248724EC30E072
:100F80003787268720EC30E0318B208B21EC30E056
:100F9000338B228B22EC30E0358B248B26EC30E037
:100FA000378B268B118E128E138E148EECEDF3E0A0
:100FB0001382128284839583A683B78384E192E0AF
:100FC000918380830895CF93DF93CDB7DEB72897C1
:100FD0000FB6F894DEBF0FBECDBF789484B58260A3
:100FE00084BD84B5816084BD85B5826085BD85B5CD
:100FF000816085BD80916E00816080936E0010924B
:1010000081008091810082608093810080918100C5
:101010008160809381008091800081608093800056
:101020008091B10084608093B1008091B0008160B4
:101030008093B000809191008260809391008091B4
:1010400091008160809391008091900081608093F5
:1010500090008091A10082608093A1008091A10006
:1010600081608093A1008091A00081608093A000A6
:101070008091210182608093210180912101816012
:1010800080932101809120018160809320018091D3
:101090007A00846080937A0080917A0082608093E5
:1010A0007A0080917A00816080937A0080917A0042
:1010B000806880937A001092C100E0914F03F09114
:1010C000500382E08083E0914B03F0914C03108247
:1010D000E0914D03F0914E038FEC80831092570303
:1010E000E0915303F091540386E08083E091510333
:1010F000F0915203808180618083E0915103F091EF
:101100005203808188608083E0915103F091520303
:10111000808180688083E0915103F0915203808147
:101120008F7D80831092D3021092D20210921C0302
:1011300010923E0310921A03FF24F394F0921903C5
:101140001092F40284E10E94C70185E10E94C70168
:101150008091B9008E7F8093B9008091B9008D7F16
:101160008093B90088E48093B80085E48093BC0044
:10117000F0921B0388E680933D0310921C031092AB
:101180003E038BE690E00E94460480E090E00E94DF
:1011900046040E946A01F0921B0310921C031092F5
:1011A0003E038BE190E00E94460480E090E00E94C4
:1011B00046040E946A01F0921B0310921C031092D5
:1011C0003E038CE190E00E94460480E090E00E94A3
:1011D00046040E946A0121E020931B0338E6309305
:1011E0003D0310921C0310923E038BE390E00E949B
:1011F00046040E946A010E9484058091D20290E018
:101200002091D302821B910986309105ECF38CED7D
:1012100093E00E94D303F82E8CED93E00E94D30359
:10122000FA82198229813A81822B932BAC01990F82
:10123000660B770B4093A1025093A2026093A30226
:101240007093A4028CED93E04B835C836D837E836B
:101250000E94D303F82E8CED93E00E94D3033F2C21
:10126000212C822993292C01990F66087708409236
:101270009D0250929E0260929F027092A0028CED9D
:1012800093E00E94D303F82E8CED93E00E94D303E9
:101290009F2C812C882999296C01990FEE08FF0851
:1012A000C0929902D0929A02E0929B02F0929C0224
:1012B0004B815C816D817E81CB01BA010E94DA0B8A
:1012C00020E030E040E858E30E948F0C6093B902C0
:1012D0007093BA028093BB029093BC02C301B20127
:1012E0000E94DA0B20E030E040E858E30E948F0CC7
:1012F0006093B5027093B6028093B7029093B802E0
:10130000C701B6010E94DA0B20E030E040E858E364
:101310000E948F0C6093B1027093B2028093B3026B
:101320009093B40231E030931B0310921C0310928F
:101330003E0383E490E00E9446040E946A010E94FA
:1013400084058091D20290E02091D302821B910902
:1013500086309105ECF38CED93E00E94D303F82ED8
:101360008CED93E00E94D303F8861F822F8138858D
:10137000822B932BAC01990F660B770B4093AD0238
:101380005093AE026093AF027093B0028CED93E085
:101390004B835C836D837E830E94D303F82E8CED98
:1013A00093E00E94D3031F2D00E0802B912B2C0192
:1013B000990F660877084092A9025092AA0260929B
:1013C000AB027092AC028CED93E00E94D303F82E36
:1013D0008CED93E00E94D303BF2CA12C8A299B297A
:1013E0006C01990FEE08FF08C092A502D092A602E8
:1013F000E092A702F092A8024B815C816D817E8110
:10140000CB01BA010E94DA0B20E030E043E053E464
:101410000E94370B6093C5027093C6028093C70287
:101420009093C802C301B2010E94DA0B20E030E0C1
:1014300043E053E40E94370B6093C1027093C202F1
:101440008093C3029093C402C701B6010E94DA0BD5
:1014500020E030E043E053E40E94370B6093BD028C
:101460007093BE028093BF029093C0028CE292E020
:101470000E949E0487E392E00E949E046091C50250
:101480007091C6028091C7029091C80242E00E940A
:10149000A0048BE392E00E949E046091C1027091CF
:1014A000C2028091C3029091C40242E00E94A00453
:1014B0008FE392E00E949E046091BD027091BE0293
:1014C0008091BF029091C00242E00E94A00483E498
:1014D00092E00E949E0487E392E00E949E04609145
:1014E000B9027091BA028091BB029091BC0242E0B5
:1014F0000E94A0048BE392E00E949E046091B502DA
:101500007091B6028091B7029091B80242E00E94B9
:10151000A0048FE392E00E949E046091B10270915A
:10152000B2028091B3029091B40242E00E94A00402
:101530008EE492E00E944B040E943E022B013C018B
:1015400084E6C82ED12CE12CF12C0E943E02DC0155
:10155000CB0184199509A609B709883E9340A105D6
:10156000B10558F031E0C31AD108E108F10888EE5E
:10157000480E83E0581E611C711CC114D104E104A3
:10158000F10419F70E94580326CE5058BB27AA270A
:101590000E94DD0A0C94500C0E94420C38F00E940C
:1015A000490C20F039F49F3F19F426F40C943F0CB9
:1015B0000EF4E095E7FB0C94390CE92F0E94610CC6
:1015C00058F3BA17620773078407950720F079F478
:1015D000A6F50C94830C0EF4E0950B2EBA2FA02DDB
:1015E0000B01B90190010C01CA01A0011124FF27D0
:1015F000591B99F0593F50F4503E68F11A16F040CB
:10160000A22F232F342F4427585FF3CF46953795C9
:101610002795A795F0405395C9F77EF41F16BA0B8E
:10162000620B730B840BBAF09150A1F0FF0FBB1F3C
:10163000661F771F881FC2F70EC0BA0F621F731F85
:10164000841F48F4879577956795B795F7959E3FE2
:1016500008F0B0CF9395880F08F09927EE0F979573
:10166000879508950E94150C08F481E008950E9462
:101670004B0B0C94500C0E94490C58F00E94420CE9
:1016800040F029F45F3F29F00C94390C51110C946F
:10169000840C0C943F0C0E94610C68F39923B1F305
:1016A000552391F3951B550BBB27AA276217730788
:1016B000840738F09F5F5F4F220F331F441FAA1F1C
:1016C000A9F335D00E2E3AF0E0E832D091505040D8
:1016D000E695001CCAF72BD0FE2F29D0660F771F86
:1016E000881FBB1F261737074807AB07B0E809F06C
:1016F000BB0B802DBF01FF2793585F4F3AF09E3FF1
:10170000510578F00C94390C0C94840C5F3FE4F391
:10171000983ED4F3869577956795B795F7959F5F33
:10172000C9F7880F911D9695879597F90895E1E07F
:10173000660F771F881FBB1F621773078407BA07DE
:1017400020F0621B730B840BBA0BEE1F88F7E09539
:1017500008950E94690C88F09F5798F0B92F992737
:10176000B751B0F0E1F0660F771F881F991F1AF08C
:10177000BA95C9F714C0B13091F00E94830CB1E062
:1017800008950C94830C672F782F8827B85F39F061
:10179000B93FCCF3869577956795B395D9F73EF425
:1017A00090958095709561957F4F8F4F9F4F0895CD
:1017B000E89409C097FB3EF49095809570956195EB
:1017C0007F4F8F4F9F4F9923A9F0F92F96E9BB27A1
:1017D0009395F695879577956795B795F111F8CF1D
:1017E000FAF4BB0F11F460FF1BC06F5F7F4F8F4F88
:1017F0009F4F16C0882311F096E911C0772321F07E
:101800009EE8872F762F05C0662371F096E8862F15
:1018100070E060E02AF09A95660F771F881FDAF76C
:10182000880F9695879597F90895990F0008550F99
:10183000AA0BE0E8FEEF16161706E807F907C0F056
:1018400012161306E407F50798F0621B730B840B5E
:10185000950B39F40A2661F0232B242B252B21F438
:1018600008950A2609F4A140A6958FEF811D811DD8
:10187000089597F99F6780E870E060E008959FEF12
:1018800080EC089500240A94161617061806090617
:10189000089500240A9412161306140605060895E6
:1018A000092E0394000C11F4882352F0BB0F40F46E
:1018B000BF2B11F460FF04C06F5F7F4F8F4F9F4FAE
:1018C000089557FD9058440F551F59F05F3F71F030
:1018D0004795880F97FB991F61F09F3F79F0879597
:1018E0000895121613061406551FF2CF4695F1DF20
:1018F00008C0161617061806991FF1CF86957105B0
:10190000610508940895E894BB2766277727CB01E3
:1019100097F908950E94150C08F48FEF08950E941E
:10192000A20C0C94500C0E94420C38F00E94490CFE
:1019300020F0952311F00C94390C0C943F0C1124D9
:101940000C94840C0E94610C70F3959FC1F3950F69
:1019500050E0551F629FF001729FBB27F00DB11D33
:10196000639FAA27F00DB11DAA1F649F6627B00DC3
:10197000A11D661F829F2227B00DA11D621F739FAC
:10198000B00DA11D621F839FA00D611D221F749FBA
:101990003327A00D611D231F849F600D211D822F01
:1019A000762F6A2F11249F5750409AF0F1F0882328
:1019B0004AF0EE0FFF1FBB1F661F771F881F915055
:1019C0005040A9F79E3F510580F00C94390C0C94BF
:1019D000840C5F3FE4F3983ED4F386957795679542
:1019E000B795F795E7959F5FC1F7FE2B880F911D7F
:1019F0009695879597F908950E94150C880B990B79
:101A00000895A1E21A2EAA1BBB1BFD010DC0AA1F3F
:101A1000BB1FEE1FFF1FA217B307E407F50720F057
:101A2000A21BB30BE40BF50B661F771F881F991FD2
:101A30001A9469F760957095809590959B01AC011B
:101A4000BD01CF010895EE0FFF1F881F8BBF0790C8
:101A5000F691E02D199481E090E0F8940C94300D0B
:041A6000F894FFCF28
:101A640000000000EF026302B8029602AA023603E5
:101A7400000000001704E7038E02D303C403C3036A
:101A84006E616E00696E66006F7666004779726FEC
:101A94002028646567290020583D0020593D002016
:101AA4005A3D0020416363656C20286729000D0AB4
:021AB400000030
:00000001FF
